:020000040000FA
:1000000000800010150200001D0200001F02000009
:100010002102000023020000250200000000000071
:1000200000000000000000000000000027020000A7
:1000300029020000000000002B0200002D02000039
:100040002F0200002F0200002F0200002F020000EC
:100050002F0200002F0200002F0200002F020000DC
:100060002F0200002F0200002F0200002F020000CC
:100070002F0200002F0200002F0200002F020000BC
:100080002F0200002F0200002F0200002F020000AC
:100090002F0200002F0200002F0200002F0200009C
:1000A0002F0200002F0200002F0200002F0200008C
:1000B0002F0200002F0200002F0200002F0200007C
:1000C0002F02000000F002F800F096F80AA090E875
:1000D000000C82448344AAF10107DA4501D100F003
:1000E0008BF8AFF2090EBAE80F0013F0010F18BF3A
:1000F000FB1A43F001031847CC8E0000EC8E000081
:10010000103A24BF78C878C1FAD8520724BF30C843
:1001100030C144BF04680C60704700000023002415
:1001200000250026103A28BF78C1FBD8520728BF07
:1001300030C148BF0B6070476E2900F0CB86702934
:1001400000F04D81662908F04780652908F0448059
:10015000672908F04180612908F0408003681B0A84
:1001600028BF41F08001692900F07886642900F0F9
:100170007586752900F072866F2900F0B48778299A
:1001800000F01981E92900F04F87E42900F04C873D
:10019000F52900F04987EF2900F0B187F82900F030
:1001A00018810368DB0928BF41F08001632902F050
:1001B000E581732902F0EA81E32902F0F581F32950
:1001C00002F0FA81002070471FB59DE8030000F09F
:1001D00049FD02F07FFF04000020002107F08CF9A8
:1001E000401C60600020002107F09CF9E06001F0F5
:1001F0007DFC00F0F9FC1FBD05F0C8FE114603B4FC
:1002000005F0D3FE03BCFFF7DFFF04F017F806F09C
:10021000E5F800000648804706480047FEE7FEE78D
:10022000FEE7FEE7FEE7FEE7FEE7FEE7FEE7FEE7A6
:1002300065420000C500000000487047C003001080
:1002400070B5064600F0F4FC056806F10B0020F0DE
:100250000704B4429CBF002070BD2B466A68BAB147
:100260001068A04210D304F1080188423CBF5068D6
:10027000586007D35168101941601168091B01606B
:1002800058601460101D70BD13465268002AE7D1F3
:100290002146284600F0D2FC0028DED170BD70B5A2
:1002A0000446051F00F0C4FC0068002C14BF44681D
:1002B00070BD002C18BFAC423CBF20466468F8D328
:1002C00001680A18AA4218BF456003D12A6805468A
:1002D0001144016028684119A1421CBF6C6070BDC7
:1002E0006168696021680844286070BD0B4601465A
:1002F000184600F029BE704770477047FFFFFFFFA8
:100300007CB51D4616460C00009001D02044401ECE
:10031000074B7B442A4669460190304600F0F3FDC6
:1003200005461CB10020694600F000FE28467CBD51
:10033000210C00000FB41CB5084B06AA7B4469468B
:100340000090059800F0DFFD04460020694600F0AB
:10035000EDFD20461CBC5DF814FB0000ED0B000019
:10036000F0B40D460188090502D5214C7C4402E019
:100370001F4C7C440E34002100F1240608E002F0FA
:100380000F071209E75D42EA03721B097754491C03
:1003900052EA0307F3D102780023120704D5702D27
:1003A00006D009B1022311342246F0BC00F0FCBC97
:1003B00001231034F8E770B504460D462146106855
:1003C00000F0C0FC024629462046BDE870400023EC
:1003D000C6E7D21D22F00703D3E90023C0E7036874
:1003E000126843F0200303600823C3610023B7E7CA
:1003F000C08000002DE9F05F894604464FF0000AF6
:10040000DFF874B1FB44C0F820A02046E1688847BB
:10041000002874D0252806D0D4E901219047206A0D
:10042000401C2062F1E700265F462046E1688847CD
:100430002028054607DB312D05D2781910F8200C4D
:1004400008B10643F1E7B00701D526F00406C4F869
:100450001CA00027C4F818A02A2D09D0284605F0B2
:100460009DFD38B304EB8708303DC8F8185019E0FB
:1004700059F8041B204604EB87029161E168884724
:10048000012F054618D1E069002820DA26F0200661
:100490001DE0D8F8180000EB800005EB4000303874
:1004A000C8F818002046E1688847054605F076FD43
:1004B0000028EED1012F0AD02E2D08D12046E16868
:1004C00088477F1C0546022F46F02006C4DBA06942
:1004D000002803DA404246F00106A061F00701D08F
:1004E00026F010066C2D0BD0682D09D04C2D39D07C
:1004F0006A2D35D0742D35D07A2D33D016E038E002
:10050000E1682F4620468847B842054609D16C2F3E
:1005100026D04FF48060E1680643204688470546B0
:1005200004E06C2F1AD04FF4807006430DB3A5F190
:100530004100192802D8203546F400664A4629466B
:10054000204626604E46FFF7F7FD80B101280BD00C
:10055000F61D26F0070000F1080956E74020E4E701
:100560008020D8E70020D6E706F104094DE72846A9
:1005700052E7206ABDE8F09F508000000FB400B53C
:100580008DB010A9099000910B904FF0FF300A90A8
:1005900000200C90064878440690064878446A4645
:1005A00007900F9909A800F003FF0DB05DF814FB48
:1005B000370E00004F0E00002DE9FF5F1D464FF083
:1005C000FF3B91464FF000085F46D5E90146A96917
:1005D00001987F1C8847296A824688470028F6D1FF
:1005E000BAF1FF3F0CD0002E24F4C06419DD600680
:1005F00014D5BAF12B0F09D0BAF12D0F0ED103E0AB
:10060000584604B0BDE8F09F44F48064A96901989D
:100610007F1C8847761E8246002E02DDBAF1300F1D
:1006200003D0B9F1000F26D032E0A969761E0198F7
:100630007F1C44F400748847002E824605DDBAF121
:10064000780F06D0BAF1580F03D0B9F1000F10D0CF
:100650001EE0B9F1000F02D0B9F1100F18D1A9694D
:10066000761E01987F1C24F400748847824610206F
:1006700002E0082000E00A20814609E0A96908FBA1
:100680000908761E01987F1C44F40074884782464E
:10069000002E05DD4946504600F05AFD0028EDDAEF
:1006A000E96901988847A00502D46FF00100A8E726
:1006B000E00725D1600613D5600502D5C8F100001A
:1006C00000E0404629680A1D2A600968220501D514
:1006D000087015E0220701D5088011E008600FE0DE
:1006E0002868011D29600068210502D580F8008076
:1006F00006E0210702D5A0F8008001E0C0F80080E4
:1007000038467EE770B50446C068810713D080067E
:1007100001D5A56A04E0A169606808442169451A09
:10072000204601F09FF9002206462946204601F0A6
:10073000C5F8304670BD002070BD70B510B1BDE881
:100740007040DFE70025074C6E1E07E02046FFF7EC
:10075000D9FF00B13546206D20F00104002CF5D101
:10076000284670BDC403001070B50D46044604E071
:10077000294605F049FE401C04D014F8010B00285E
:10078000F6D170BD4FF0FF3070BD00002DE9F04193
:100790000C4607461646104600F078F82078611C93
:1007A00061280AD0722802D077283CD102E00125C6
:1007B000002405E00225042402E0082448F2020592
:1007C00011F8010B2B2806D0622809D011F8010C72
:1007D00074280AD00BE045F0030544F00204EFE76B
:1007E00045F0040544F00104EAE744F010043846FB
:1007F000214605F045FC411C15D000213161716096
:100800004FF40071F560F1617061200704D5304646
:100810000222002101F052F8306D40F001003065F5
:100820003046BDE8F0810020FBE72DE9F0410D46A0
:100830000646104C206DC10704D0410804D020F0BA
:100840000104F7E722460EE05420FFF7F9FC070009
:100850000ED0206D47F00101084354212065384631
:1008600000F05BF93A4629463046BDE8F0418DE795
:100870000020D6E7C403001011B14FF4807201E0EC
:100880004FF480624FF4007301F094B82DE9F04703
:1008900004464FF000094FF0FF37C568D4E90486DD
:1008A000A80707D0204601F0DDF8304605F082FBAE
:1008B000002802DA3846BDE8F087280502D5404610
:1008C000FFF7EDFC4C21204600F027F9206D20F0C9
:1008D000010020654846EEE70EB5054614460E4673
:1008E00013A002F04BFB284602F048FB16A002F0D2
:1008F00045FB304602F042FB15A002F03FFB002111
:100900008DF80B100A210DF10A008DF80A1008E08D
:1009100094FBF1F201FB124294FBF1F4303200F847
:10092000012D002CF4DC02F029FB01F07BF9000022
:100930002A2A2A20617373657274696F6E2066615A
:10094000696C65643A2000002C2066696C652000A3
:100950002C206C696E65200010B5431C02E010F875
:10096000011B71B18107FAD14FF0013202C88C1A14
:100970008C4314EAC211F9D0C01A0A0603D0C01E73
:1009800010BDC01A10BD0A0401D0801E10BD09029E
:10099000FCD0401E10BD40EA010370B59B072ED16C
:1009A0004FF00136042A2AD308C810C99D1B9D4365
:1009B000121F15EAC61517D0D8B2E1B2401A50EA94
:1009C000056110D198B2A1B2401A50EA05410AD18E
:1009D00023F07F4024F07F41401A50EA052102D1E4
:1009E000180EA0EB146070BDA342DBD018BA21BA78
:1009F000884201D9012070BD4FF0FF3070BD0AB9A7
:100A0000002070BD10F8013B11F8014B63B1A34207
:100A10000AD1521E08D010F8013B11F8014B1BB14E
:100A2000A34201D1521EEDD1181B70BD032A40F222
:100A3000308010F0030C00F0158011F8013BBCF180
:100A4000020F624498BF11F801CB00F8013B38BF98
:100A500011F8013BA2F1040298BF00F801CB38BFA6
:100A600000F8013B11F0030300F02580083AC0F0C4
:100A7000088051F8043B083A51F804CBA0E808106C
:100A8000F5E7121D5CBF51F8043B40F8043BAFF39F
:100A90000080D20724BF11F8013B11F801CB48BFF9
:100AA00011F8012B24BF00F8013B00F801CB48BF2F
:100AB00000F8012B704710B5203AC0F00B80B1E868
:100AC0001850203AA0E81850B1E81850A0E8185083
:100AD000BFF4F5AF5FEA027C24BFB1E81850A0E88C
:100AE000185044BF18C918C0BDE810405FEA827CA6
:100AF00024BF51F8043B40F8043B08BF7047D207BD
:100B000028BF31F8023B48BF11F8012B28BF20F85D
:100B1000023B48BF00F8012B70474FF0000200B5C0
:100B2000134694469646203922BFA0E80C50A0E810
:100B30000C50B1F12001BFF4F7AF090728BFA0E8BE
:100B40000C5048BF0CC05DF804EB890028BF40F88A
:100B5000042B08BF704748BF20F8022B11F0804FCC
:100B600018BF00F8012B70474FF0013C50F8042BE0
:100B700051F8043B9A4221D1A2EB0C03934313EAB0
:100B8000CC1317D150F8042B51F8043B9A4215D1DD
:100B9000A2EB0C03934313EACC130BD150F8042BB4
:100BA00051F8043B9A4209D1A2EB0C03934313EA98
:100BB000CC13DBD04FF00000704700BFD01A01BA51
:100BC000B1FA81F101F0180122FA01F0CB40C1F134
:100BD0002001DBB2C0B2C01A2CFA01F3D11A914342
:100BE00011EAC311E6D1704770B5064C7C44064D3E
:100BF0007D4403E0206820448047241DAC42F9D1A5
:100C000070BD0000408500004C8500002DE9F041DA
:100C100017460E46054633B107FB0354E41B204636
:100C2000B047A542FAD1A5F10800BDE8F081000067
:100C300000487047D80400107047704738B5044624
:100C40000A460020694602F0F2F9002808BF38BDC4
:100C500002460099204601F091F8012038BD01209C
:100C600002F06DB9F8B502F0D7F9054600200C4640
:100C7000102000BF0646A819A0420DD93246694689
:100C8000002002F0D4F9070008BF02F058F90098DC
:100C9000A04218BF0546C419FFF7CAFF0560074602
:100CA000F01D20F007004619284600F00AF8B4426B
:100CB00008BFF8BDA21B31463868BDE8F84001F016
:100CC0005DB800210160C0E9011070471020704735
:100CD0000FB4014610B504AA039800F035F910BC12
:100CE0005DF814FB70B5044685690068C10601D53E
:100CF000302600E02026C00707D070BDD4E90121CE
:100D000030469047206A401C20626D1EF6D570BDAB
:100D100070B5044685690078C00707D170BDD4E975
:100D2000012120209047206A401C20626D1EF6D5CC
:100D300070BD09684A0501D540B27047C905FCD5A8
:100D400000B2704709684A0501D5C0B27047C905AD
:100D5000FCD580B2704770B50C460546012A05D017
:100D60002878800600D5EA69002302E0012305E027
:100D70005B1C934202D2E05C0028F9D1A869E61816
:100D8000C01AA861286A184428622846FFF7AAFFFB
:100D900004E0D5E9012114F8010B9047B442F8D3DF
:100DA0002846FFF7B5FF70BD2DE9F0470D4699467F
:100DB0009246044600F124080168880604D5E069DB
:100DC00021F01001216000E00120A84201DD471B55
:100DD00000E00027A1697A1902EB0900081AA06156
:100DE0002078C00602D42046FFF77CFF002608E0EA
:100DF000D4E901211AF806009047206A401C761CAD
:100E000020624E45F4DB2078C0060AD52046FFF765
:100E100069FF06E0D4E9012130209047206A401C98
:100E20002062381EA7F10107F4DC07E0D4E90121B4
:100E300018F805009047206A401C2062281EA5F182
:100E40000105F3DC2046FFF763FF2078000602D59A
:100E50000220BDE8F0870120FBE700002DE9F0410A
:100E60000646002410687529314616A510D0FFF7F4
:100E700060FF002802DA404213A507E031688A07C4
:100E800001D512A502E0490704D511A5012401E00E
:100E9000FFF758FF00210A2206F1240709E0B0FB02
:100EA000F2FCB0FBF2F302FB1C0030307854184621
:100EB000491C0028F3D123462A463046BDE8F041BC
:100EC000FFF772BF000000002D0000002B000000A3
:100ED0002000000011680268006A530501D50870FF
:100EE0000AE0D30501D5088006E0130603D5C21732
:100EF000C1E9000200E008600120704701694A1C56
:100F000002610878704700B58FB0CDE9013100214A
:100F1000059105497944CDE9031011466846FFF76C
:100F200069FA0FB000BD0000E5FFFFFF0A6802F894
:100F3000010B0A607047D1E900239A4202D2531C88
:100F40000B60107070470000074B70B50D467B4476
:100F5000FFF7D9FF0446284600F0C0FB10B14FF060
:100F6000FF3070BD204670BDB75400002DE9FF5F13
:100F700015468A460446DFF8AC80F8440027D8E9D5
:100F800000103E46CDE9001010E03AF816106A460F
:100F900002A801F0A1FF411C07D02178890603D5E2
:100FA000E269391891420DD80744761C20788006F2
:100FB00002D5E069B84205DDAE42E6DB3AF816003C
:100FC0000028E2D1A069C01BA0612046FFF78AFE7D
:100FD000D8E90010CDE90010002017E03AF8181009
:100FE0006A4602A801F078FFB0F1FF3F81460BD0BE
:100FF00000250DF1080B05E0D4E901211BF80500DF
:1010000090476D1C4D45F7D308F10100B042804672
:10101000E4DB206A384420622046FFF779FEBDE811
:10102000FF9F00004A7500002DE9F0418046D21D67
:1010300022F007020025D2E90002F52915A614D0F6
:10104000011E72F1000106DA0023D0EB030063EB0E
:10105000020211A608E0D8F800108B0701D50FA6F0
:1010600002E0490701D50EA601251146002408F12A
:10107000240704E000F09CFE30323A55641C50EA2C
:101080000102F7D12B46324621464046BDE8F041E9
:10109000FFF78ABE000000002D0000002B000000BA
:1010A0002000000030B4002100F1240408E002F028
:1010B0000705D208303542EA4372DB086554491C03
:1010C00052EA0305F3D10468002310A2250707D5CF
:1010D000A40600D421B1C46901230DA2641EC46119
:1010E00030BCFFF761BE10B5044621461068FFF71B
:1010F00029FE02462046BDE810400023D2E7D21D5B
:1011000022F00701D1E90023CCE700000000000035
:10111000300000000FB400B58DB010A90990009107
:101120000B904FF0FF300A9000200C900648784456
:101130000690064878446A4607900F9909A800F07F
:1011400037F90DB05DF814FB9F020000B7020000F4
:101150003A2800D2303820F02002412A01D3A2F1EF
:101160003700884201D34FF0FF3070472DE9FF4F21
:101170001C4691464FF0FF3581B000218A468846D3
:10118000D4E90167A16902986D1C8847216A8346EA
:1011900088470028F6D1BBF1FF3F0CD0002F26F482
:1011A000C0661ADD700615D5BBF12B0F0AD0BBF156
:1011B0002D0F0FD104E04FF0FF3005B0BDE8F08FE8
:1011C00046F48066A16902986D1C88477F1E83469D
:1011D000002F02DDBBF1300F03D0B9F1000F2AD090
:1011E00025E0A1696D1C02987F1E46F400768847B1
:1011F000002F834605DDBBF1780F06D0BBF1580FF9
:1012000003D0B9F1000F10D011E0B9F1000F02D0F6
:10121000B9F1100F0BD1A1696D1C02987F1E26F445
:10122000007688478346102000E0082081464FEA78
:10123000E970009017E00A20F8E74346AAFB092866
:10124000DDF800C07F1E03FB098046F4007605F13F
:1012500001050AFB0C0112EB0B0A029841EBEB783B
:10126000A16988478346002F06DD49465846FFF7A7
:101270006FFF5FEA000BE0D5E16902988847B0058F
:1012800002D46FF0010098E7F00718D1700610D56E
:101290005146700505D50023D1EB030163EB08022D
:1012A00000E042462068031D23600068C0E9001288
:1012B00005E02068011D21600068C0E900A82846FB
:1012C0007BE72DE9FF5F4FF000089946144646463C
:1012D0009169D2E901A7DDF838B001988847054641
:1012E00059EA0B0005D009E0A1690198761C8847EE
:1012F0000546216A284688470028F5D1681C03D096
:101300005FEACA7005D015E04FF0FF3004B0BDE8C9
:10131000F09F2068011D2160D0F800800AE05FEA9C
:10132000CA7001D108F8015BA169761C01987F1E83
:1013300088470546002F1ADD681C18D0B9F1000F48
:101340000DD0E81705EBD060421120F01F0059F8CE
:1013500022102A1A012090400142E0D107E0BBF19F
:10136000000FDCD12846216A88470028D7D0E169E0
:1013700001988847BBF1000F07D1002E05DD5FEA19
:10138000CA7002D1002188F80010A068B84203DDBD
:10139000BBF1000F03D017B16FF00100B6E7304684
:1013A000B4E70000026811441378016018467047E2
:1013B000D1600549794451610449794411620021A1
:1013C0001161114601F0FCB8EDFFFFFF7D0A00003E
:1013D000426842B1016811F8013B23B1521EC0E9D5
:1013E0000012184670470121C160881E704742688C
:1013F0005AB1C368016843B983688B4205D0491E5E
:10140000521CC0E90012002070474FF0FF307047B7
:101410002DE9FF4F4FF000089A461446C146464654
:1014200083B0D2E901B7CDF80080CDF8048091698E
:1014300004988847109905465AEA010005D009E04A
:10144000A1690498761C88470546216A2846884782
:101450000028F5D1681C03D05FEACB7005D02AE0E4
:101460004FF0FF3007B0BDE8F08F2068011D21600C
:10147000D0F800801FE002A86A46E9B201F00EFD34
:10148000411C07D0801C09D04FF000095FEACB70E7
:1014900007D00AE0E169049888473EE04FF001096F
:1014A00004E0BDF8081028F8021B7F1EA16904980B
:1014B000761C88470546002F1ADD681C18D0BAF143
:1014C000000F0DD0E81705EBD060421120F01F008F
:1014D0005AF822102A1A012090400142CBD107E08D
:1014E00010980028C7D12846216A88470028C2D012
:1014F000E16904988847B9F1000F0ED1109830B90E
:10150000002E04DD5FEACB7001D1A8F80000A068CE
:10151000B84202DD109818B117B16FF00100A1E7D1
:1015200030469FE72DE9FF4F4FF000089B461446D9
:10153000454683B0D2E90196CDF80080CDF804800D
:101540009169DDF848A00498884707465BEA0A00DD
:1015500005D009E0A16904986D1C88470746216AF7
:10156000384688470028F5D1781C03D05FEAC97057
:1015700005D01BE04FF0FF3007B0BDE8F08F2068CA
:10158000011D2160D0F8008010E05FEAC97007D12A
:101590006A464046B9B201F09FFC411C31D08044FC
:1015A000A1696D1C0498761E88470746002E14DD3D
:1015B000781C12D0BBF1000007D03B46DDE91012C9
:1015C00001F034FC0028E0D107E0BAF1000FDCD1D3
:1015D0003846216A88470028D7D0E16904988847AF
:1015E000BAF1000F06D1002D04DD5FEAC97001D108
:1015F00088F80000A068B04203DDBAF1000F03D004
:1016000016B16FF00100B7E72846B5E72DE9FF5F97
:101610009B46144600273D469169D2E90196DDF8C4
:1016200040A00198884780465BEA0A0005D009E09F
:10163000A16901986D1C88478046216A4046884709
:101640000028F5D1B8F1FF3F03D05FEAC97005D09B
:1016500014E04FF0FF3004B0BDE8F09F2068011D9A
:10166000216007680AE05FEAC97001D127F8028BA0
:10167000A1696D1C0198761E88478046002E15DDF5
:10168000B8F1FF3F12D0BBF1000007D04346DDE9BF
:101690000E1201F0CBFB0028E5D107E0BAF1000FF4
:1016A000E1D14046216A88470028DCD0E1690198F1
:1016B0008847BAF1000F05D1002D03DD5FEAC9703C
:1016C00000D13880A068B04203DDBAF1000F03D02A
:1016D00016B16FF00100BEE72846BCE7007B00F0C2
:1016E000800070472DE9F04705460C46C86820F495
:1016F000201040F48000C860800602D5084600F043
:10170000D4F9E06841F282014FF0FF39014002292B
:1017100003D0204600F072F9B5E000F42041B1F5A5
:10172000004F0FD1C00306D56168E06A884200D837
:101730000846606006E02069E0626060606904F06D
:101740005FFCA061A0680022EEB200280DDAE1681B
:101750008B050AD4C043A06041F490302260E06061
:101760006068411C61600670A5E0E06890462260F8
:1017700040F40050E060206968BB606904F05CFCE4
:10178000012704F12405A0B1A08910F4407F08D0FE
:10179000E069FEF755FD206118B1E06840F4006093
:1017A00016E0E7612561E06820F4407040F4806055
:1017B0000EE0E069FEF744FD00282061F1D0E0680A
:1017C00040F4006010F4407FE06002D140F480708B
:1017D000E06020696060E06825696FF0010AC1057A
:1017E0001FD56168E06A884200D80846411B04D0D2
:1017F0002246284600F00CF9F0BBE068010203D550
:10180000E562C4E9015854E0691CE1626160E16984
:1018100040F48030491EC4E9021030462E70BDE805
:10182000F087010202D500F480320AE06068411CB2
:1018300061600670E0680A2E40F48030E06006D0F7
:101840000022E16A6068814203D90B4602E001226E
:10185000F7E70346A7895B1B7F0503D4E7699F422F
:1018600000DDE2B1814200D80146E5620F1AC4E909
:101870000158002B09DD00E005E022461946284604
:1018800000F0C6F808B14846C9E747B1A069E5626B
:101890006560C01BA061E06840F01000E060E06897
:1018A000000208D56168A069E562491B08446560CB
:1018B000A0615046B3E73046B1E700002DE9F041A2
:1018C000044616460D464769007B80072ED03846F1
:1018D00004F0B2FB50BB3EB3012E02D0022E25D144
:1018E00004E0204601F0B1FA05441DE0384604F05A
:1018F00087FBE168002841F01001E16005DA20462D
:1019000000F07CF80120BDE8F081C9030BD56268C6
:10191000E16A914200D81146A26911442269891AEC
:10192000814200DD08460544002D01DA0220EAE785
:10193000E16A6068E268814206D29103E06203D501
:1019400022F4003141F01002A6690027AE4213DCF8
:10195000E16A814201D90B4600E0034603EB060C25
:101960002369ACEB030CAC4506DD814201D98C4602
:1019700000E084469C4505D1A760276042F0200026
:10198000A5620DE0AD1BE669AE1B8142A66000D9E1
:101990000846C01A281A20605819606022F02000FA
:1019A00003490840E060002084F84870ABE700007D
:1019B000BFCFD7FF70B5C468A50713D0650211D497
:1019C000B2F5807F09D0B2F5007F06D0B2F5806F06
:1019D00008D1012300F1240106E05D1E6FF07F466F
:1019E000B54201D3012070BD0161C361416024F49F
:1019F00070611143C160002070BD0000C16821F416
:101A0000001141F08001C1600021816001607047D8
:101A10002DE9F047814614460E464FF0FF38324814
:101A2000D5685769054209D03846A16904F0F8FB2A
:101A3000002811DB2C48C0430540E5602B463246A8
:101A40004946384604F00AFCA16920F00042B21A67
:101A500011440028A16103D02046FFF7CFFF404684
:101A6000BDE8F08770B504460569C06A61688842C0
:101A700000D80846E16821F42011E160C90312D5BD
:101A8000A84208D02246411B2846FFF7C1FF10B1EB
:101A90004FF0FF3070BD0020E562C4E90150E068FE
:101AA00020F48030E060002070BD10B50446C068AE
:101AB00020F02000E060A16AA06988420DD0204695
:101AC000FFF7D0FFE06820F4405040F01000E060E5
:101AD000A06AA0612069E062606044F24001E068B1
:101AE0008843E06010BD00001000020010B54248BD
:101AF0005421FFF712F841485421FFF70EF84048EF
:101B00005421FFF70AF83F493B483C4A3F4B0860E5
:101B10003D490A603A491960531C0365481C106529
:101B2000012008653B48344A39A17844FEF72EFE6F
:101B300020B9384878440A3801F0FAF937482F4A72
:101B400035A17844FEF722FE20B9344878440A389B
:101B500001F0EEF932482A4A2FA17844FEF716FE2A
:101B600020B92F4878440A3801F0E2F9402322488E
:101B7000DC0000212246FFF71DFF20B125487844F4
:101B8000543801F0D5F91D48224640230021FFF7C3
:101B900011FF20B121487844543801F0C9F91848A0
:101BA000224610230021FFF705FF002806D01C481D
:101BB0007844BDE81040563801F0BAB910BD10485D
:101BC00070B5006D20F001040B48FEF75FFE0B4876
:101BD000FEF75CFE0A48FEF759FE09E0206D20F092
:101BE00001052046FEF752FE2046FEF758FB2C4624
:101BF000002CF3D170BD0000C403001018040010C5
:101C00006C040010080100100C01001010010010FD
:101C100072000000AE670000770000009D670000C2
:101C20008D67000010B5002001F07BF9AFF3008054
:101C3000BDE81040012000F093B810B501F086F91E
:101C4000BDE8104001F068B940EA0103024630B532
:101C50009B0710D14FF0013400E008C208C91D1BDA
:101C60009D4315EAC41FF8D013F0FF0102F8011BD1
:101C70000DD01B0AF8E711F8013B002B02F8013BDD
:101C800005D011F8013B002B02F8013BF3D130BD28
:101C90000022CBB210F8011B994200D1421E00294C
:101CA000F8D110467047421E12F8013F002BFBD1BD
:101CB00011F8013B002B02F8013BF9D17047431AA0
:101CC00028BF9A427EF6B2AE032A1044114440F275
:101CD000268010F0030F1EBF11F8013D521E00F8C0
:101CE000013D10F0030F7FF4F6AF11F0030301F094
:101CF0006881083AC0F00B8051F8043D083A51F869
:101D000004CD40F8043D40F804CDFFF7F3BF121DA9
:101D10005CBF51F8043D40F8043DAFF30080D207AA
:101D200024BF11F8013D11F801CD48BF11F8012C75
:101D300024BF00F8013D00F801CD48BF00F8012C98
:101D4000704710B503F0E8FFBDE8104003F019BF7D
:101D500008B569468DF800000320ABBE08BD000041
:101D600001491820ABBEFEE72600020010B501F0C5
:101D7000B1F9001D10BD00BF815700000346406847
:101D80008C46002818BF88423CBF03464068F8D301
:101D900018681844884207D00CF1030020F00700AF
:101DA000001D411A521A0146081D0A60FEF777BA53
:101DB00030B5B0F10A024FEA900E71F100034EEA1D
:101DC000817EB0EB0E0061EB91014FEA101E4EEAEE
:101DD000017E10EB0E0041EB11114FEA102E4EEA7E
:101DE000016E10EB0E0041EB11214FEA104E4EEA4E
:101DF000014E10EB0E0041EB1141401841F1000182
:101E00004FEAD00040EA41704FEAD10110EB800563
:101E10004FEA810444EA907444EB01046D1944EBE9
:101E20000404521BA3414FF0000348BF0A3200D5FF
:101E300030BD401C41F1000130BD10B50446FFF734
:101E400095FF0068005D00F0010010BD70472DE9AE
:101E5000FF4F0C461E464FF0FF378BB0D2E9000112
:101E6000DDF860800A908A46C1F30A5505B93D46FF
:101E7000002108464FF00000BAF1000F00F44000C6
:101E800005DA00EB80004FF4400101EA50004FEA10
:101E90009059B9F1010F00DDB9460A9850EA4A009D
:101EA0000ED044F61050A5F2FF3545432F14B8F17B
:101EB000000F1ED07542291E1EDDC9F100021CE074
:101EC000B8F1010F4FF0000001D0302103E0F243E0
:101ED00005E02154401CB042FBDB304600220021CB
:101EE00021540B99C1F80880C1E900200FB0BDE86A
:101EF000F08FBD1B6D1CDEE74A4600DA694206A87A
:101F000001F030F906AB93E8070003AB83E8070064
:101F100050460A9901F05DFD8DE80700A0F50050DC
:101F20001F3800900398002D0ADD42F21F014A4637
:101F30000844002303A90390684602F009F809E069
:101F4000A0F500504A461F38002303A903906846B5
:101F500002F028F88DE807000004000C03D04FF0D1
:101F6000FF30410800E01046B8F1000F03D0002216
:101F7000009215461EE0751E05D4FFF719FF30329A
:101F800062556D1EF9D5B3460122084302D00022E6
:101F90007F1C04E02078302801D100227F1E002A17
:101FA000099784D01DE0112D07DAFFF701FF3032C9
:101FB00062556D1C50EA0102F5D1084302D0009829
:101FC000C8B10EE00021681E05E0235C625C63542A
:101FD0002254401E491C8142F7DBAB46A81B401E21
:101FE0000990002004F80B000B98099AC0F80880AB
:101FF000C0E9002B7AE711264FF0000857E72DE9DA
:10200000F04F88460446D21D22F0070191B0D1E975
:102010000001CDE90A0103F03CFE02460B98C00F17
:1020200001D02D2007E02068810701D52B2002E098
:10203000202101EAC000032A099001D0072A05DB0C
:1020400003464146204601F04DF80BE1207880061A
:1020500001D5E06900E00620B8F1650F814606D0A1
:10206000B8F1660F18D0B8F1670F70D131E00020D9
:10207000B9F1110F009001DB112301E009F1010317
:102080000AAA01A90CA8FFF7E2FEDDE90C70002600
:1020900009F10105834647E001204B4600904FF0CF
:1020A00000470AAA01A90CA8FFF7D1FEDDE90DB08F
:1020B0000C995D46002610B909F101000D18B9EB25
:1020C000050003D4C0F1FF3609F10105A5EB0900B5
:1020D0002BE0B9F1010F01DA4FF001090020B9F14D
:1020E000110F0090484601DD112300E003460AAAC3
:1020F00001A90CA8FFF7ABFEDDE90C704D460026E8
:102100008346207800070AD4AB4500DA5D4601A873
:10211000012D04DD411911F8011C302907D04F456C
:1021200002DA17F1040F04DA012082460FE06D1E77
:10213000EEE7002F02DCED1B3E4403E0781CA842D2
:1021400000DD7D1CB81B00F1010A4FF0004720782C
:10215000000703D4AA4501DB4FF0FF3A0021B7F195
:10216000004F0DF143088DF8431024D002202B239B
:10217000002F01DA7F422D230A21021EA0F1010067
:1021800000DC5FB197FBF1FC97FBF1F201FB1C7CDB
:1021900017460CF1300C08F801CDEEE7A8F101006C
:1021A00003702188090501D5452100E06521A0F1D2
:1021B000010800F8011C09980FA9A1EB0807FF1DF1
:1021C00000B10120411901EBEA70A1693844081AF5
:1021D000401EA0612078C00602D42046FEF782FD92
:1021E000099828B1D4E901219047206A401C206257
:1021F0002078C00622D52046FEF774FD1EE0002E92
:1022000004DBB34502DD01A8805D00E03020D4E9A5
:1022100001219047206A401C2062761CAAF101002F
:102220005FEA000A0AD100F055FFC0680168405C0F
:10223000D4E901219047206A401C2062281EA5F1A4
:102240000105DCDC07E0D4E9012118F8010B904717
:10225000206A401C2062381EA7F10107F3DC2046EB
:10226000FEF756FD032011B041E600002DE9F04FC6
:1022700004460D46D21D22F0070089B0D0E9009730
:102280004846394603F005FD0246F80F01D02D23DC
:1022900007E02068810701D52B2302E0202101EA15
:1022A000C0038DF820300BB1012000E00020032A8C
:1022B000824601D0072A04DB2946204600F012FF9F
:1022C0003FE12078800601D40D2500E0E569C7F3E1
:1022D0000A560D2D49DA00214FEA175B08464FF0E8
:1022E0000000002F00F4400007DA00EB80004FF4FC
:1022F000400100EBD07001EA60008115012901DD89
:102300004FF0FF3100224FEA850CBCF1180F06D3C5
:102310001346ACF118004FF08052C24003E04FF476
:10232000801323FA0CF30CF10C0CBCF1200F04D336
:10233000ACF1200C09FA0CF001E007FA0CF00029CE
:102340004FF0004801DD18B90FE00ED140450CD325
:1023500019EB02095F4121B9404502D19F4329EAA7
:102360000209BBEB175F00D0761C2088000502D560
:102370007B48784402E07A487844193808AA302328
:1023800002F80A30037C0AF10101002E0AF1020A68
:1023900053546A4602DC4FF0300101E04FF0310146
:1023A0004FF001088DF8001002D0A6F2FF3603E0CE
:1023B00059EA470100D06B4E002D02DC2178090755
:1023C00004D54FF002082E218DF80110C4460021DB
:1023D0000BE0C7F303433F01C35C491C6D1E02F8C9
:1023E0000830052908F1010801DA002DF1DC00218F
:1023F0000CE000EB1973491C1B786D1E082902F8CC
:1024000008304FEA091908F1010801DA002DF0DC63
:1024100021688B0602D516E0A8F10108E04505DD2C
:1024200002EB080313F8013C302BF5D0B8F1000F94
:1024300009DD02EB080313F8013C2E2B03D1090739
:1024400001D4A8F10108002D05DD3E2102F8081095
:102450006D1E08F10108407C002E02F8080008F10A
:10246000010804DA2D20764202F8080002E02B2051
:1024700002F808000A214FF47A70864208F1010838
:102480000BDB96FBF0F3303302F8083096FBF0F3E9
:1024900008F1010800FB136601E0642E0CDB6420E8
:1024A00096FBF0F3303302F8083096FBF0F308F1B6
:1024B000010800FB136601E00A2E06DB96FBF1F033
:1024C000303002F8080008F1010896FBF1F001FB3A
:1024D0001060303002F80800A16908F1010808EB2B
:1024E000050202EB0A00081AA0612078C00602D497
:1024F0002046FEF7F7FB216A08AE01EB0A002062D6
:1025000004E0D4E9012116F8010B9047BAF1010A61
:10251000F7D22078C00602D52046FEF7E3FB6E46D0
:1025200009E016F8010B3E280FD0D4E901219047AD
:10253000206A401C2062B8F10108F2D22046FEF762
:10254000E7FB09B00320BDE8F08F206A2844206231
:1025500003E0D4E90121302090476D1EEBD3F8E76A
:102560006D63000002FCFFFF10B5436913B1AFF3C8
:10257000008001E0FEF7EFFB012010BD127800F1B2
:1025800024010A7000224A700122EDE711684FF021
:10259000FF32E9E710B5436913B1AFF3008001E002
:1025A000FEF7E4FC012010BD128800F124018284B2
:1025B0000022C2840122EDE711684FF0FF32E9E703
:1025C0002DE9F34F4FF0000A0C4656468DB001201E
:1025D0000C9001F10C000B9062690B98012190475F
:1025E000051E2DD0252D2CD0216A8847C0B16269E7
:1025F0000B9801219047216A88470028F7D162692A
:10260000411E0B98904700E0761CA1690D98884701
:10261000216A88470028F7D1E1690D988847DBE7F0
:10262000A1690D988847A842074601D1761CD3E7D7
:10263000E1690D9888477F1C02D1BAF1000F6FD075
:102640006BE162690B9800273D46394690472A287E
:1026500004D162690B98012190470125DFF8D082EF
:1026600062690B9801219047A0F130010A290AD232
:102670004745E5DC07EB870100EB4107303FDFD43E
:1026800045F01005ECE7E90601D46FF000476C282F
:102690000AD04C2814D0682815D06A280DD0742888
:1026A0001CD07A281AD01DE062690B98012190474E
:1026B0006C2802D045F0040514E045F002050DE059
:1026C00045F020050AE062690B98012190476828CF
:1026D00002D045F0080505E045F4006562690B98F5
:1026E00001219047C4E9015765283DD019DC5828DD
:1026F0007AD00CDC452837D004DC252826D04128A8
:102700009ED131E046282FD0472899D12CE05B2874
:1027100077D0612828D063287CD0642823D15AE060
:10272000F6E06F2848D008DC66281DD067281BD04B
:10273000692821D06E2816D127E0702845D073284B
:1027400068D0752847D078280DD14DE0A1690D9843
:102750008847252805463FF469AFE1690D98884709
:102760006D1C3FF46AAFD8E00D9923466A466FF0BE
:10277000010005F095FDC5E045F0400023464FF00F
:1027800000026060A80736D43EE0E8077FF447AF58
:102790002068011D21600068290501D506701BE72E
:1027A000290701D5068017E7A90703D5F117C0E966
:1027B000006111E706600FE745F0400023464FF047
:1027C00008026060A80716D41EE040F60E0125EA54
:1027D0000100606016E045F0400023464FF00A0219
:1027E0006060A80707D40FE045F040006060A807CC
:1027F00008D5234610220D996FF00100FEF7B6FCB4
:1028000080E007E0102223460D996FF00100FDF7EC
:10281000D3FE77E04FF0000963284F46C8464B4689
:10282000CB4602D05B2806D038E0E80601D4012070
:10283000A060012732E06269D4F80CB00B98012146
:1028400090475E2807D14FF0010949466269D4F8E4
:102850000CB00B989047216939B900210A4603ABA7
:1028600043F82120491C0829FADBD8B3216949B370
:1028700008F1010862690B98012190475D28F4D1A5
:10288000B9F1000F09D0002003A951F82020D2434C
:1028900041F82020401C0828F7DB03AB2069002802
:1028A00020794FEA40701ED05B462246CDF800806A
:1028B000CDE901970D9900286FF0010020DAFEF7AD
:1028C000A5FE1FE0C11703AA00EBD1614B1121F057
:1028D0001F0102EB8302411A136801208840034361
:1028E0001360C7E719E00D99224600286FF0010038
:1028F000009702DAFEF78CFD04E0FEF7E2FC01E04F
:10290000FEF710FE00280ADA401C06D10C9820B110
:102910004FF0FF300FB0BDE8F08F5046FAE7E907FF
:1029200001D10AF1010A064400200C9054E600008F
:10293000CCCCCC0C2DE9FF4F06468BB00878FF2895
:1029400006D0491C2D2805D000244FF0000908E0CE
:1029500000200CE00124F8E709EB8903491C00EB97
:1029600043090878FF28F7D114B1C9F10000814666
:10297000107800252C46AA4629462D2801D02B2860
:1029800004D1521C2D2813D0002082468B4610788B
:10299000FF280FD04FF0000C0A21521CA5FB017834
:1029A00004FB018105FB0C11C5194BEB0104EEE79B
:1029B0000120EAE7002108464FF00000BAF1000FBD
:1029C00002D000EB80004008C0F38157012F01DDE9
:1029D0004FF0FF370E9955EA040009EB01080BD0C0
:1029E0004FF0020918F5FA7F16DA4FEACA70002F85
:1029F000706008DD012007E04FEACA70C6E900B048
:102A00000FB0BDE8F08F00203060FDF715FCC0F876
:102A100000901821084616E0B8F5FA7F18DD002F5F
:102A200002DAF748784401E0F6487844D0E900102B
:102A3000C6E9001040EACA707060FDF7FDFBC0F8FF
:102A40000090142108460FB0BDE8F04F05F0C1BB5F
:102A5000002108464FF00000B8F10001099002DAA9
:102A6000C7F1000200E03A4601DAC8F1000106A809
:102A700000F078FB06AB93E8070003AB83E80700A0
:102A800044F23E005BEA04010090584604D144F24F
:102A90001E012C465D460091210C0904014306D11C
:102AA0000099240444EA15442D041039009104F0DF
:102AB0007F41014306D10099240244EA15642D02A6
:102AC0000839009104F07041014306D100992401B6
:102AD00044EA15742D01091F009104F0404101439F
:102AE00006D10099A40044EA9574AD00891E0091B6
:102AF00004F00041084304D100986D196441401E60
:102B000000904FF001033A466846B8F1000FCDE956
:102B1000014503A902DD01F05AFA01E001F02DFAA6
:102B2000BAF1000F04460D4601D084F000440021A4
:102B300008464FF00000099940F2FF77484010F036
:102B40000C0F07D124F00040284303D0C4F30A50EF
:102B5000B84212D1FDF770FBC0F80090C4F30A50E0
:102B6000B8420AD1A8487844D0E90010C6E900105C
:102B700004F000410843706042E7C6E900543FE7B3
:102B80002DE9FF4F1F464FF0000A4FF0FF38454632
:102B900091B0D7E90146CDF83CA000F09BFAC0689F
:102BA0000168405C1090B96912986D1C8847396AB9
:102BB000814688470028F6D1B9F1FF3F0AD0002EA0
:102BC00024F4D06411DDB9F12B0F08D0B9F12D0F29
:102BD0000BD102E0404615B013E744F48064B969B4
:102BE00012986D1C8847761E8146600504A901D5A0
:102BF0002D2000E02B20002E01F1010B0DF13008FB
:102C00008DF810003FDDB9F1690F08D0B9F1490F17
:102C100005D0B9F16E0F02D0B9F14E0F1CD13B4671
:102C200001A8009580E85002DDE912126FF0020061
:102C300005F03AFBC11CCED10EE0B96912986D1CAB
:102C4000884781461398761E44F4007405600F98F7
:102C5000401C002E0F9016DDB9F1300FEDD0B9F108
:102C6000780F02D0B9F1580F0DD10F9801280AD171
:102C70003B46CDE90054DDE91212001F029605F033
:102C800011FBC11CA7D1109989453ED144F08004A5
:102C900006E01399681CAAF1010A44F40074086064
:102CA000B9696D1C1298761E884730288146F0D08D
:102CB0002BE01099894505D1200603D4761E44F0F7
:102CC000800418E0484603F069F908B3761E0DF158
:102CD00023018B4544F4007408D2A9F130000BF8AD
:102CE000010B200607D5AAF1010003E0200602D45B
:102CF0000AF101008246A00502D51399681C0860FC
:102D0000B96912986D1C88478146002ED1DC53E0CA
:102D1000002E51DDB9F1650F02D0B9F1450F4BD14D
:102D2000A00549D5B9696D1C1298761E24F440742B
:102D30008847002E81460CDD2B2804D0B9F12D0FD9
:102D400007D144F48074B96912986D1C8847761EC7
:102D50008146E00501D52D2100E02B2108F8011B5B
:102D6000CDF8008021E0761E0DF13901884544F44C
:102D700000740CD2A9F1300010F0FF0088F80000B8
:102D800002D10099884509D908F1010806E0E0055B
:102D900001D51E4801E042F20F708246B9691298CF
:102DA0006D1C8847814613980560002E04DD484657
:102DB00003F0F4F80028D6D1F96912988847FF206B
:102DC00053468BF8000088F8000000200A900B9012
:102DD00004AA0CA90AA8FFF7ADFDA00502D46FF064
:102DE0000100F8E614F0240F12D0E0071CD1386877
:102DF000DDE90A12031D3B600068C0E9001213E020
:102E0000C4650000B66500007A640000F1D8FFFFD9
:102E10000AA9684602F0BAFFE00705D13868009AAF
:102E2000011D3960006802602846D4E610B508E04C
:102E300030F8024B9C4204D10AB1002010BD0120A1
:102E400010BD491EF4D2104610BD10B50146C2682F
:102E5000900703D0900607D5886A0AE0FDF7ECF9E1
:102E600001210160881E10BD8B69486818440B69F8
:102E7000C01A91F848301BB191F84910401A10BDA2
:102E80001103FCD50028FADD401E10BD0A4601469C
:102E9000014800F026BA0000DC04001070B51646A8
:102EA0000C460546FEF762FF036893F8010101280E
:102EB00004D0185D68B101202C8070BDD3F80301E7
:102EC0003246214603F2031303442846BDE870400E
:102ED00018474FF0FF3070BD70B516460C460546DA
:102EE000FEF744FF036893F80101012806D0FF2C88
:102EF0000FD8185D68B101202C7070BDD3F80701A0
:102F00003246214603F2071303442846BDE87040C9
:102F100018474FF0FF3070BD002801D0FEF720BFEA
:102F2000704710B500F086FABDE81040FFF7F4BF17
:102F300010B500F097FABDE81040FFF7EDBF10B5EF
:102F400000F0AAFABDE81040FFF7E6BF10B5002177
:102F500002A000F055FA012010BD0000534947506F
:102F600056464E3A205075726520766972747561C6
:102F70006C20666E2063616C6C65640010B504495A
:102F8000FDF7F2FBBDE810400148FDF7D6BB00009D
:102F90006C04001001B5FDF749FD01BD431A28BFBF
:102FA0009A427DF688AD104410F0030F11441EBF05
:102FB00011F8013D521E00F8013D10F0030F7FF49F
:102FC000F6AF103AC0F00A8010B531E91850103A47
:102FD00020E91850BFF4F9AFBDE81040530724BFF3
:102FE00031E9081020E9081044BF51F8043D40F8C9
:102FF000043D12F0030F08BF7047D20728BF31F815
:10300000023D48BF11F8012C28BF20F8023D48BFFF
:1030100000F8012C70470000124B694600F5805201
:103020008A421A6001D8114670471960704730B55E
:103030000C4D6B46A3F580532C6822449A420FD85E
:103040009B1A02F5805003EBD37302EB63039842A3
:1030500000D91846C01D20F007020C60101B2A6022
:1030600030BD00005401001010B500F00EF80169E9
:1030700019B100220261884701E080688047FEF7AD
:10308000D1FD000010B5FEF7CDFD70B500F026F8BB
:1030900004680546A4B92020FDF7D2F8040011D039
:1030A000094900202C60C4E900010849A16020738F
:1030B000206160610649A06109B100F016FAE06183
:1030C000204670BDFEF7AEFD000000008530000018
:1030D00000000000004870470805001000487047D5
:1030E0001C0500102DE9F0411F4604460326016827
:1030F000072A01F4006004DB08B116A505E016A557
:1031000003E008B115A500E015A521F0100020602E
:10311000A069C01EA0610FB1401EA0612046FDF74E
:10312000E1FD4FB1D4E9012138469047206A401CA7
:103130002062C01C206206E0206AFAE7D4E901217F
:1031400015F8010B9047761EF8D22046FDF7E0FDFA
:10315000BDE8F0814E414E006E616E00494E460062
:10316000696E66002DE9F047814616468AB03548FB
:1031700078440DC88DE80D0032487844801C03ACBB
:103180000DC884E80D0041F69B300844372190FBC0
:10319000F1F290FBF1F5A5F1800501FB12041B3C57
:1031A00002D56442012000E00020DFF898A08046AC
:1031B0000027FA44AAF1BE0A0EE0E0070AD0324620
:1031C000684607EB470101230AEB810100F0EAFEA4
:1031D0008DE8070064107F1C002CEED1194F7F444E
:1031E000AE3F19E0E80715D007EB04100DF1180AFF
:1031F00090E80E008AE80E00C068F04201D19819EC
:1032000008903246012306A903A800F0CBFE03ABC9
:1032100083E807006D10641C002DE3D14FF001031B
:1032200032466946B8F1000F03A802D000F090FEC4
:1032300001E000F0B7FEC9E90001C9F808200AB0B2
:10324000BDE8F0870056000070B50646484231EAF6
:1032500000000FD02A20741C00253070FFF73AFFC1
:103260000346002253F82500010F000109292BD93C
:1032700057312AE0042913D004DC012908D002299F
:1032800004D109E008290FD0102911D0002070BD09
:10329000FFF720FF00680EE0FFF71CFF40680AE020
:1032A000FFF718FF806806E0FFF714FFC06802E030
:1032B000FFF710FF006928B120F0030050F8041C4C
:1032C000084470BD4CA070BD3031521C082A04F86F
:1032D000011BC9D36D1C052DC3DB002020703046B7
:1032E00070BD09B14B0901D00020704722B113789D
:1032F0002A2B02D000F034B8A6E7AFF300802DE906
:10330000F0410F468046541C00250026314614F833
:10331000010BA0F13002092A03D9A0F16103052BAA
:1033200016D8392801D8104600E05738491C08291A
:1033300040EA0616EBD30120A840384203D0FFF73D
:10334000C9FE40F825606D1C052DDEDB207810B12C
:103350000020BDE8F08139464046BDE8F04173E702
:103360002DE9F0410C460646154688070AD5114658
:103370002248784404F0C0F8071EEAD0FFF7AAFEFE
:103380007F1C4760E0070AD029461C4878441A3859
:10339000AFF30080071EDCD0FFF79CFE07606007DC
:1033A0000AD52946154878443438AFF30080071E03
:1033B000CFD0FFF78FFE876020070AD529460F4838
:1033C00078444E3804F0AEF8071EC2D0FFF782FEF4
:1033D000C760E0060AD52946084878446838AFF344
:1033E0000080051EB5D0FFF775FE05612146304609
:1033F000BDE8F04128E7ACE743000000B65D0000FF
:1034000070B505460C460A2000E06D1CFEF7A0FCD6
:1034100035B128780028F8D102E0641CFEF798FC4A
:1034200014B120780028F8D1BDE870400A20FEF7DA
:103430008FBC000010B5002102A0FFF7E1FF0120C2
:1034400010BD0000534947414252543A2041626E38
:103450006F726D616C207465726D696E6174696FF5
:103460006E00000010B5014602A0FFF7C9FF012061
:1034700010BD000053494752545245443A2052650A
:103480006469726563743A2063616E2774206F709B
:10349000656E3A200000000010B5012805D000211B
:1034A00003A0FFF7ADFF012010BD09A1F8E7000060
:1034B00053494752544D454D3A204F7574206F661D
:1034C0002068656170206D656D6F72790000000085
:1034D0003A2048656170206D656D6F727920636F69
:1034E000727275707465640000DE10B58820FCF798
:1034F000A7FE002801D00021017010BD802902D84C
:1035000008B1017809B100207047012100F8081BBB
:10351000704718B100F10802914201D000207047B5
:1035200000210170704710B5FCF786FE006810BDE1
:1035300010B50446FCF780FE046010BD2DE9FF4F76
:103540001F464FF03C0987B04FF00042DDE91410F0
:1035500001F10108DDF858A002EA40500390002074
:1035600005908346054604460490B969461E0898AE
:103570008847AAF1010A0290BAF1000F3BDD0298D8
:103580002E2815D01021FDF7E3FD00282EDB4FF08B
:10359000010B0599014317D0B9F1000F0BDB4A4627
:1035A000C11700F0F5F905430C43A9F1040905E042
:1035B000012004900BE008B145F0010501200590C1
:1035C000049820B9361D02E0049800B1361FB9698D
:1035D000089808F101088847BBF1000FAAF1010A19
:1035E0000290C9D00999C1F80080C5E702987028F7
:1035F00008D0502806D0F96908988847BBF1000F19
:1036000014D04FE0002002900120BBF1000F049085
:1036100009D0B969089808F101088847AAF1010999
:10362000B9F1000F07DCF969089888476FF00100CD
:103630000BB0BDE8F08F2B2804D02D280CD14FF013
:10364000FF300490B969089808F101088847A9F18A
:103650000109B9F1000FE6DD411CE4D00A21FDF7B4
:1036600077FD0028DFDB029908F1010801EB8101F9
:1036700000EB41000290B969089888470A21FDF7DC
:1036800067FD099AA9F10109B9F1000FC2F800809C
:1036900001DD0028E7DAF96908988847049902985B
:1036A00000FB016655EA040004D004F04041090023
:1036B00002D006E0039898E0A40044EA9574AD00B7
:1036C000B61E04F00041080002D16D196441761E57
:1036D000159810F0240F03D04FF00B095C4803E05D
:1036E0004FF028096FF07D008246564507DAAAEBB5
:1036F00006018944B9F1410F01DD4FF04109012074
:103700000021A9F1010200F043F9024628400B46CE
:103710002140084301D0012100E00021501E029108
:1037200043F1FF3128402140084301D0012000E04F
:1037300000200299834651EA0B014FD00021084630
:103740004FF00000039900F4400039B100EB800015
:103750004FF4400100EBD07001EA600080150128B1
:1037600002DD4FF0FF3000E013D0401C36D002984D
:1037700060B3BBF1000F0CD14A460120002100F0DC
:1037800007F928402140084301D0012000E0002033
:10379000E0B101204A46002100F0FAF80346401942
:1037A0000A4661412D1A8C4111D3B9F1400F09DD50
:1037B000159810F0240F02D0AAF1340603E0AAF104
:1037C000170600E0761C00254FF0004406E05B1E63
:1037D00042F1FF3220EA030521EA0204CAF10100A6
:1037E000B04206DA1B49039808430190002000907C
:1037F0000EE0039AC4F3D321E80A0A43164940EACB
:1038000044500A433146CDE90002684602F0B2FB5B
:10381000159810F0240F0BD01598C00715D13868F3
:10382000DDE90012031D3B600068C0E900120CE0F6
:1038300002A8694602F0AAFA1598C00705D13868AF
:10384000029A011D3960006802604046F0E60000FF
:1038500002FCFFFF0000F07F0000F03F2DE9FF4F6A
:1038600092461D4685B04FF00041DDE9124BDDE97F
:1038700014727F1E01EA4B50414940F0FF4940EA73
:103880000108002122F020004928049102D04E288E
:1038900028D04CE03BA0012607C88DE80700A969A5
:1038A0000698641C88477F1E014606D41DF8060052
:1038B00018B121F0200181420BD0E96906988847B0
:1038C000032E34D0082E32D06FF0010009B0BDE8CD
:1038D000F08F761C032E01D0082EE0D1601CCAF8B0
:1038E0000000DCE7A9690698641C88477F1E2AD47B
:1038F00020F02000412826D1A9690698641C884739
:103900007F1E20D420F020004E281CD1A9690698E3
:10391000641C88477F1E48F4002849F48009CAF8CF
:10392000004001D4282806D0E969069888475FEA54
:10393000CB7012D022E0A9690698641C88477F1ECC
:1039400001D4002803DAE96906988847BCE72928EA
:10395000F1D1641CCAF80040E9E71BF0240F07D03E
:1039600028680499031D2B600068C0E9001805E071
:103970002868021D2A600068C0F800902046A5E76C
:103980000000F07F494E46494E495459000000005E
:10399000B2F120030AD5C2F1200301FA02F120FAA4
:1039A00003F300FA02F041EA0301704700FA03F161
:1039B0004FF0000070472DE9F04116461F460C46B7
:1039C000851B02E02846B847AD1B641EFAD2BDE84D
:1039D000F0815FEA400C08BF91F0000F4FEA8C23A2
:1039E0004FEAC12243EA51514FEA1C5018BF00F57B
:1039F000F0404FEA300018BF41F000415FEA6C5CD4
:103A000000F02980BCF1FF3F08BF40F080407047C4
:103A1000130C06BF12044FF0100C4FF0000C130EE5
:103A200004BF12020CF1080C130F04BF12010CF1B9
:103A3000040C930F04BF92000CF1020CD30F04BFCF
:103A400052000CF1010C11464FF00002A0F11F00D2
:103A5000A0EB0C00704711F0004F08BF704731F029
:103A600000413FF4D5AF0B0C06BF09044FF0100C1A
:103A70004FF0000C0B0E04BF09020CF1080C0B0FE9
:103A800004BF09010CF1040C8B0F04BF89000CF179
:103A9000020CCB0F04BF49000CF1010CCCF1200348
:103AA000A0EB0C0022FA03F302FA0CF241EA030144
:103AB00000F10100704720F07F4C80EA030023F002
:103AC0007F47ACEB070303F57C5300F0004003F1A4
:103AD000FF032DE980494FEA154B09B44FEA14431F
:103AE00025EA0B4E24EA03480FF2042606EB1327BF
:103AF00049083E785FEA320203FB0667C7F5000714
:103B000007FB06F64FEA54374FEAD64606F102069F
:103B100007FB066CCCF1005C4FEA1C472CEA074C13
:103B200007FB06F40CFB06F504EB15464FEA961668
:103B300034BF00204FF000404FEAD13706FB07FCAE
:103B40004FEA1C4C0CFB0BF7D21B03FB0CF761EB91
:103B500007010CFB0EF7B0EB074072EB17420CFBB2
:103B600008F734BFA2EB0742B2EB074261EB174103
:103B70004FEA0C444FEA910706FB07FC4FEA1C4C46
:103B80000CFB0BF7B0EBC74072EB573203FB0CF7A3
:103B900034BFA2EBC742B2EBC74261EB57310CFB1B
:103BA0000EF7B0EBC70072EB57720CFB08F734BF8F
:103BB000A2EBC702B2EBC70261EB5771039F4FEA5A
:103BC000816141EA921104EBCC044FEAD1374FEA0C
:103BD000826206FB07FC42EA90124FEA80604FEADD
:103BE0001C4C0CFB0BF7D21B03FB0CF761EB070122
:103BF0000CFB0EF7B0EB074072EB17420CFB08F71B
:103C000034BFA2EB0742B2EB074261EB17414FEA28
:103C10008C554FEA910704EB9C2406FB07FC4FEA06
:103C20001C4C0CFB0BF7B0EBC74072EB573203FB9D
:103C30000CF734BFA2EBC742B2EBC74261EB57317E
:103C40000CFB0EF7B0EBC70072EB57720CFB08F7DA
:103C500034BFA2EBC702B2EBC70261EB577115EBA1
:103C60004C254FEA816141EA92114FEA82624FEAA4
:103C7000D13742EA901206FB07FC44F100044FEAF8
:103C800080604FEA1C4C0CFB0BF7D21B03FB0CF7BC
:103C900061EB07010CFB0EF7B0EB074072EB17422C
:103CA0000CFB08F734BFA2EB0742B2EB074261EB13
:103CB000174115EB1C154FEA813141EA92414FEA59
:103CC000823242EA90424FEA80304FEA0C7644F169
:103CD000000448EA03434EEA0B484FF0000EB2EBF3
:103CE000080C71EB030724BF624639464EEB0E0EFB
:103CF0004FF0000B0018524149414BEB0B0BB2EB5C
:103D0000080C71EB03077BF1000B24BF62463946B8
:103D10004EEB0E0E4FF0000B0018524149414BEB99
:103D20000B0BB2EB080C71EB03077BF1000B24BF0C
:103D3000624639464EEB0E0E51EA020718BF46F0B6
:103D4000010616EB0E7655F1000254F1000103D581
:103D5000BDE88901BDE80088BDE88901BDE80048EB
:103D6000B619524141EB0101A3F101037047808074
:103D70007F7E7D7C7B7A79787776767574737271C5
:103D800071706F6E6E6D6C6C6B6A6A69686867667D
:103D900066656464636362616160605F5F5E5E5D0F
:103DA0005D5C5C5B5B5A5A59595858575756565583
:103DB00055555454535352525251515050504F4FE5
:103DC0004F4E4E4D4D4D4C4C4C4B4B4B4A4A4A4935
:103DD0004949484848474747474646464545454478
:103DE0004444444343434342424242414141000030
:103DF00046EA0646A3F570534FEA164646EA42568F
:103E00004FEAD22242EA415210B54FEAD121A3F142
:103E1000010300F02FF820F0004000F1020C00F048
:103E2000004701EB00501146BCF5006F40EA070067
:103E300000D210BDBAF1000F0AD01CB503B44FF088
:103E400004004FF004014FF000000FBCBDE810402B
:103E50004FF00001BBF1010FB9BF04484FF0FF3133
:103E60000348002140EA070010BD00BFFFFFEF7FBD
:103E70000000F07F002B9C4630D477002BD01CB57F
:103E80004FEA370703B44FF010004FF01001BAF1BA
:103E9000000F06D0BCF1000FDCBF40F0080040F07E
:103EA00008014FF000000FBCBDE810400BF1010B02
:103EB000BBF1010F08BF5FEA170722BF12F1010231
:103EC00011F101014FF0004143F1000300F0004007
:103ED00043EA00007047F9D35708D0E746EA0646A0
:103EE00013F1400F4FEA16461FDD13F1200FDFBF1D
:103EF00016430A46002120335B42BED0C3F120079F
:103F000046EA064602FA07F74FEA164646EA070669
:103F1000C3F1200722FA03F201FA07F721FA03F1AD
:103F20004FF0000342EA0702A7E746EA020646EA24
:103F300006464FEA164646EA0106BCBF46EA064672
:103F4000360C4FF000034FF000024FF0000194E7F1
:103F50002DE9804C9A46934670B491E8380007C822
:103F600031EA400C48BF34EA430C03D5FFF7A3FD08
:103F7000FFF780FFF0BCBDE8008C2DE9804C9A462D
:103F8000934670B491E8380007C831EA400C48BF46
:103F900034EA430C03D5FFF78EFDFFF729FFF0BC91
:103FA000BDE8008C2DE9804C9A46934670B491E8A8
:103FB000380007C810F0804F08BF13F0804F03D1BE
:103FC00000F01AF8FFF756FFF0BCBDE8008C2DE9B1
:103FD000804C9A46934670B491E8380007C810F0B8
:103FE000804F08BF13F0804F03D100F005F8FFF7B2
:103FF000FFFEF0BCBDE8008C20F07F4780EA0300A4
:1040000023F07F4C07EB0C03A3F57C5300F000403A
:10401000A3F1FE0392F0000F00F0B38095F0000FC3
:1040200000F077802DE901494FEA11404FEA14462C
:1040300021EA004800FB06FC24EA064708FB06F6D6
:1040400007FB08F800FB07F718EB06484CEB164C8B
:104050004FEA124B18EB07484FEA15464CEB174056
:1040600022EA0B4E0BFB06FC25EA06470EFB06F682
:1040700007FB0EFE0BFB07F71EEB064E4CEB164C38
:104080004FF000061EEB074E4CEB174B18EB0B08DE
:1040900040F1000018EB0E0B58EB000840F1000057
:1040A0008F1A4FF000013CBFC943661B14BFB5EB2C
:1040B000040C00213CBFC943F61B4FEA17444EEAEB
:1040C0008E0E27EA04454FEA1C4704FB07622CEAE0
:1040D000074C05FB07F70CFB05F604FB0CFC16EB85
:1040E000074642EB174216EB0C4642EB1C421BEB19
:1040F000060658EB0202414146EA9E0601D5BDE89C
:104100000189B619524141EB0101A3F10103BDE858
:1041100001894FEA14454FEA114724EA054621EA8E
:10412000074C05FB07F406FB07F70CFB06F105FB44
:104130000CFC11EB074144EB17444FEA124711EB1B
:104140000C4144EB1C4422EA074C05FB07F206FB3A
:1041500007F70CFB06F605FB0CFC16EB074642EBDB
:10416000174216EB0C4642EB1C456A1854F100014D
:1041700048BF7047B619524141EB0101A3F1010359
:10418000704795F0000F37D04FEA11424FEA1447BD
:1041900021EA024624EA074C02FB07F106FB07F777
:1041A0000CFB06F402FB0CFC14EB074441EB17413B
:1041B0004FEA154714EB0C4441EB1C4125EA074C30
:1041C00002FB07F506FB07F70CFB06F602FB0CFCEF
:1041D00016EB074645EB174516EB0C4645EB1C4224
:1041E000121951F1000148BF7047B619524141EB15
:1041F0000101A3F1010370474FEA14454FEA11474B
:1042000024EA054621EA074C05FB07F106FB07F700
:104210000CFB06F24FF0000605FB0CFC12EB07420C
:1042200041EB174112EB0C4251EB1C4148BF704768
:10423000921841EB0101A3F10103704710B502F0A0
:1042400099FBBDE8104002F00FBA0021C160704731
:1042500038B504466846AFF300800146204603F0B7
:104260007FFD38BD25482021C0F8A011D0F8A0114D
:1042700011F0200F05D000BFD0F8A01111F0400FB1
:10428000FAD00221C0F804110022C0F8A821C0F819
:10429000AC210121C0F80C110B23C0F88430AA23F3
:1042A000C0F88C304FF0550CC0F88CC0C0F88010AE
:1042B000C0F88C30C0F88CC0D0F8881011F0806F36
:1042C000FAD00321C0F88010C0F88C30C0F88CC040
:1042D000D0F8881011F0407FFAD00521C0F80811FD
:1042E0000749C0F8C410C0F8C821016843F23A0277
:1042F00021F47041114301607047000000C00F407D
:10430000DE87280413B5044604B104E02E2204A17C
:1043100006A0FCF7E1FA2046019900F01DF91CBD4A
:104320006D61696E2E6370700000000075737250CD
:104330007472000010B5044604B104E0422205A1E5
:1043400007A0FCF7C9FA08A104F1300000F0A0FDB5
:1043500010BD00006D61696E2E637070000000007A
:1043600075737250747200006375740A0000000067
:1043700013B5044604B104E0332205A107A0FCF7FD
:10438000ABFA00BF84200199015100BF1CBD0000A1
:104390006D61696E2E63707000000000757372505D
:1043A0007472000070B504460D4604B104E0382272
:1043B00005A108A0FCF790FA2A4608A104F13000F4
:1043C00000F066FD70BD00006D61696E2E63707057
:1043D00000000000757372507472000070676D20E9
:1043E00025750A0070B504460D4604B104E03D226F
:1043F00005A108A0FCF770FA2A4608A104F13000D4
:1044000000F046FD70BD00006D61696E2E63707036
:10441000000000007573725074720000707677208F
:1044200025750A000120014908707047E800001056
:1044300010B5044604B104E0472205A107A0FCF72B
:104440004BFA08A104F1300000F022FD10BD00007D
:104450006D61696E2E63707000000000757372509C
:10446000747200007472616E730A00001FB51C46FE
:1044700000F030FB0449496804B0204610BDAFF39A
:104480000080AFF30080F7E75801001013B5002457
:10449000012001F09BFB0446204601F077FB4FF022
:1044A000FF301CBDAFF30080AFF30080F4E70000E5
:1044B00010B5044600BF2068401C20B92C2207A17B
:1044C00015A002F045F900BF606900686168084006
:1044D00008B1012010BD0020FCE700006D6265649A
:1044E0002F5441524745545F4C5043313736382F93
:1044F0005441524745545F4E58502F5441524745FE
:10450000545F4C5043313736582F6770696F5F6F77
:10451000626A6563742E68006F626A2D3E70696E10
:1045200020213D202850696E4E616D65294E430063
:10453000C161704741607047816170470160704799
:1045400041617047C1607047016170478160704789
:1045500041627047016270472DE9F34383B004461E
:1045600004A803F0D5FC04A904F1280002F0F0FF30
:1045700002900498A0620822002102A803F008F823
:1045800005461022082102A803F002F8A0F108064F
:104590004FF00009082D0FD24FF00109E06AA84240
:1045A00001D0284601E04FF6FF70E062E06818B1E4
:1045B000D4E90202E16A9047082E0FD24FF00109B8
:1045C000206BB04201D0304601E04FF6FF7020630F
:1045D000606918B1D4E90402216B9047132102A845
:1045E00003F0FCF958B14FF0010904F13001081F44
:1045F00003F0A3FCE06910B1D4E906018847122159
:1046000002A803F0EBF958B14FF0010904F13001B1
:10461000081F03F092FC606A10B1D4E908018847D2
:10462000B9F1000F20D06068F0B101A800BF0021EF
:10463000016000BF00BFE06A00F10807D4F83080D5
:10464000102F04D20122394601A803F0FDFBB8F176
:10465000080F04D20122414601A803F0F5FBD4E97A
:1046600000020199904700BF05B0BDE8F0832DE935
:10467000F04F09AC94E8F010DDE90E89016042606A
:104680008360C460056146618761C0F81CC0C0F8E2
:104690002080C0F8249000F1280A00BF4FF0000BE2
:1046A000CAF800B000BF00BFAAF128004FF0080A06
:1046B000C0F82CA0C0F830A0BDE8F08F2DE9F04183
:1046C0001F4690460D00064601D00C4600E04024EF
:1046D0001EB9204601F060FA06463B464246214696
:1046E000FBF70EFE002802DA0020307010E0844252
:1046F00002DA00F1010402E00AD14FEA44041DB1DC
:104700004FF00000BDE8F081304601F03AFAE0E7F2
:104710003046F7E72DE9FF4F484D002789B028685C
:104720009B469246002857D145A0002000BF0400B8
:1047300001D105F10C0420463A21FDF7A9FA68B130
:104740003E4A00F8017B121D40A1FCF7E3FC012862
:1047500002D16868002801DC012068603C4914200F
:104760008946084600BF06001BD04FF40070C6E91A
:1047700001073848F760306006F1100807A8AFF36A
:1047800000800246344904A803F0CEFA01464046B0
:1047900003F0EEFAA0F1100604A803F008FB2F487E
:1047A00030602B4E06A8AFF30080024621466846D3
:1047B00003F0BAFA074601A801F072F90246306820
:1047C0003946C36830469847A86001A801F078F9D7
:1047D000684603F0ECFA2C60AC68601C26D06F6869
:1047E0000DF108081A4E554605A8AFF300800246A1
:1047F00015A103A803F098FACDE9005030683B46B4
:104800002246056931464046A84703A803F0CFFA7F
:10481000029A52F8040C60B1DDE909015B46FFF72A
:104820004DFF044602A803F0C2FA20460DB0BDE8D1
:10483000F08F02A803F0BBFA0020F7E71401001084
:104840005257535444455252000000002564000062
:10485000C0040010A4880000C38A0000348900004E
:104860000FB47FB5144D2A68002A04D00898032895
:1048700004DC002190477FBC5DF814FB09AE69465B
:104880000820084600BF18B100F028FF044600E0E9
:10489000002432462046089900F0DEFE2068816838
:1048A0002046884701462A68089890472068016892
:1048B00020468847DFE700005001001013B50024B0
:1048C00001F084F9044614B90320FFF7C9FF20461C
:1048D0001CBDAFF30080AFF30080F4E701F056B9E0
:1048E000704700002DE9FC4707464FF00008C7F865
:1048F00000809A46894600F10805C0F8048014003B
:10490000464608D0B4F1804F01D3AFF30080A00039
:1049100001F042F900E00020C5E9000403E0286846
:10492000641E40F82460002CF9D1A5F10804C5F8F4
:104930000880C5F80C80C4E9068AB9F100000AD0E5
:10494000FCF70AF8401C054601F026F92A464946BC
:10495000FEF720FBA061062701A8AFF30080014607
:10496000684603F0FDF982463946174B174A042082
:1049700001F0DAF965688046062D00D33D46C14650
:10498000266806E03146484603F03EFA09F104097C
:10499000361D206800EB8500B042F3D105E008EB3E
:1049A000850051466D1C03F02FFABD42F7D306492E
:1049B0002068FDF7C6F9C4E90087684603F0F7F9F7
:1049C0002046BDE8FC870000AF7D0000514200009A
:1049D00010B50446806901F0D4F804F1080002F033
:1049E00071FF083802F07CFF10BD2DE9F04104464C
:1049F0000D461646104600212260FEF747FA606019
:104A000048B1FBF7A9FF401C01F0C6F807466168F2
:104A1000FDF71AF9676029463046FEF737FA204657
:104A2000BDE8F08110B54168044629B12068FEF761
:104A30002DFA606801F0A5F8204610BD0C0008D0E2
:104A40000A460DA11048FCF743F9204601F099F8F9
:104A500009E050B101280AD002280AD00BA206A111
:104A60000948FCF735F9FDF7DDF80AA2F7E70CA2D3
:104A7000F5E711A2F3E70000457863657074696F8C
:104A80006E3A2025732E0A006C040010756E6B6E52
:104A90006F776E20657863657074696F6E000000D3
:104AA000756E65787065637465642065786365709C
:104AB00074696F6E000000006261645F616C6C6F0E
:104AC000633A206F7574206F66206D656D6F727923
:104AD0000000000010B50A4904460020D1E9003268
:104AE00000E0401C824204D953F8201009B1A142D1
:104AF000F7D153F82010002900D1104610BD000056
:104B00005801001070B504460D462E4600BF00BF88
:104B10002068401C20B9242207A116A001F018FE2D
:104B200000BF1EB1E1686068086002E0216960684A
:104B3000086000BF70BD00006D6265642F54415273
:104B40004745545F4C5043313736382F5441524714
:104B500045545F4E58502F5441524745545F4C5076
:104B600043313736582F6770696F5F6F626A6563CC
:104B7000742E68006F626A2D3E70696E20213D20A0
:104B80002850696E4E616D65294E430070B504462C
:104B90000D46164618212046FBF7BFFF3246294630
:104BA000204601F0EFFC204670BD70B504460D466E
:104BB00029462046FFF7A6FF204670BD10B50446E3
:104BC00000BF2046FFF774FC10BD10B50C46001D59
:104BD00002F06EFA204610BD10B500EB011000F196
:104BE0000C04806928B940F21F220549054801F0EC
:104BF000AFFDE06801682046BDE8104008470000AE
:104C0000668A0000618A000070B5044600680D469F
:104C10000168204688472946201D01F0BBFFE56258
:104C2000206841682046BDE87040084770472DE97C
:104C3000F041044600681D461646D0F800C00F46F5
:104C40002046E0472B4632463946201D02F084F8C4
:104C5000206841682046BDE8F041084770470000E1
:104C60002DE9F0478A4684B0244940F8041B00210E
:104C700040F8041B1C46914640F8041B02231022F6
:104C80001F4901F037F8DFF87C80A0F10C05002700
:104C9000C0F8204005EB071000F10C046E461A48DE
:104CA000CDF80C800090B4420DD0E1682046002978
:104CB0001CBF896888473146039810B14268204676
:104CC00090470398E0600399684600291CBF8968F3
:104CD00088477F1C022FDDD34A465146281D02F02B
:104CE000AFF8281DE96A01F055FF2A460749281D3B
:104CF00002F066F904B02846BDE8F087948700000A
:104D00004B420000548A0000C3510000D94B000000
:104D10000168896808470A46D0F810C00346011D9B
:104D2000604602F07FBA0269011D104602F0CCBA5B
:104D300010B504460648206000206060A060E06076
:104D400001F09CFB0349206102F0E0FA204610BD0F
:104D5000AC870000114D000010B5044603482060E8
:104D6000211D206902F0B0FA204610BDAC8700007A
:104D700070B5174C05462068002804BF201D206030
:104D8000261DB04204D059221249134801F0E0FC1C
:104D900000212468114B1022084600BF53F821C09F
:104DA000AC4508BF43F82100491C521EF6D1084803
:104DB000002C04BF011D01600068B04208BF70BD37
:104DC0005922BDE870400349034801F0C1BC00000E
:104DD000C800001074890000608900007001001094
:104DE0000021FBF749BD70477047000010B51C4615
:104DF000029BFFF735FF2146303000F063F803498E
:104E000040F8301D2031016310BD0000C087000054
:104E100010B5094940F8301B2031016000F072F8EC
:104E200030380446054940F80C1B0223102204497F
:104E3000FBF7ECFE204610BDC08700009487000001
:104E4000C97900000020704700207047002070479B
:104E50002DE9F041054600680F460C468E18816B1F
:104E600028468847B4420AD0286814F8011B026C0F
:104E700028469047B0F1FF3F18BFB442F4D12868EC
:104E8000C16B28468847E01BBDE8F08100207047D1
:104E90000FB470B504460068816B2046884706ADA4
:104EA0002069FBF74AFC2A4620690599FBF71EFAA0
:104EB00005462068C16B20468847284670BC5DF8CF
:104EC00014FB000010B584B0002200F0F1F8044695
:104ED0000948206000202061224608A16846FBF7AF
:104EE00029FA07A16846FBF7A0FC2061FFF778FFCD
:104EF00004B0204610BD0000308800003A25700044
:104F0000772B000010B50446044820602069FBF7A9
:104F1000BDFC2046BDE8104000F0EAB83088000033
:104F200070B50D46044601F0DDF92046FFF7FBFEA3
:104F30006561206902F0C5F9616901442046FFF707
:104F4000EAFEBDE8704001F013BA000010B5044657
:104F50004068616901442046FFF7DDFE606A18344D
:104F600028B940F21F220549054801F0F1FBE0682D
:104F700001682046BDE8104008470000668A00002E
:104F8000618A00002DE9F05F8246894693460AF166
:104F900018044E46B44214D0204602F015FD00BF5E
:104FA00000BF271E0DD0B8463546E86820B1E86836
:104FB0002946426840469047E868C8F80C0000BFA0
:104FC000474600BF59465046FFF7AAFFBDE8F09F8D
:104FD00070B5064684B01948306001F083F9304658
:104FE000FFF7A1FE002006F118046D460390AC42C5
:104FF0000ED0E168204600291CBF896888473CB173
:105000002946039810B14268204690470398E06013
:105010000399684600291CBF8968884701F0A8F9F0
:10502000706A06F1180410B181682046884704B000
:10503000A4F11800BDE87040FFF78EBE8088000024
:10504000007B704770B506460D46154802F0B0FA71
:1050500014480468F4B1A068C8B12A463146FBF789
:105060009AFCA0B9A068FBF777FCA8420FD10C48C6
:105070000168002904BF011D0160001D814204D0A8
:1050800059220949094801F063FB204670BD646854
:10509000002CE0D1024802F08BFA002070BD000025
:1050A00000010010FC0000107489000060890000FD
:1050B00070B504460B480026A160C4E900060D4601
:1050C0002273094802F074FA002D08BF666003D00D
:1050D0000648016861600460034802F069FA2046EE
:1050E00070BD00009488000000010010FC0000105A
:1050F00010B5044610482060104802F059FAA06824
:1051000078B10F490868A04204BF6068086008D001
:105110004168A14203D008464968A142FBD16168B9
:105120004160064802F044FA207B002804BF204674
:10513000FFF71EFE204610BD9488000000010010FD
:10514000FC0000107047704710B50446406828B155
:10515000FFF776FF002804BF606810BD002010BD77
:105160004068002818BF0120704710B5406800282B
:1051700008BF10BDFFF764FF00280CBF012000200E
:1051800010BD10B5044600202060606008782F280C
:105190000DD1487858B14B1C00212360226810784B
:1051A0002F2806D038B1501C491C2060F6E7204655
:1051B00010BD501C20601846FFF744FF6060204679
:1051C00010BD7047406870472DE9FC410D461746F9
:1051D00001684FF0FF3406226846FFF706FC2146BF
:1051E0002868FFF753F90646401C12D000F0A6FCD1
:1051F0000546D5E9004104EBC100A0420FD1284685
:10520000491C02F077FBD5E9000100EBC104083C22
:105210000AE06846FFF706FC2046BDE8FC812268EC
:10522000521C01D00834E8E73946201D266000F002
:1052300057FC2868201AC410EBE710B50C4600F0A4
:105240007DFC4168A14204DD006800EBC400001D44
:1052500010BDBDE8104000F0EBBBF8B51C4615468C
:105260000E4600F06BFC4168B1420EDD006850F85C
:105270003600411C09D0002100916B462246294688
:10528000FFF7F4F86946884200D10020F8BD406974
:1052900030F81200084000D0012070472DE9F84F87
:1052A0000646006889461D464169DDF828B09246E9
:1052B000294201D0002406E000693749284201D084
:1052C000CC6800E08C684FF0000884B1D9F8007019
:1052D000E068B84207D86A46791C04F10800CDF8A6
:1052E000008002F0C4FAA06850F82770F7BBBAF14A
:1052F000000F02D10420FFF7B3FA84B1D9F800708F
:10530000E068B84207D86A46791C04F10800CDF875
:10531000008002F0ACFAA06850F8277037BB326802
:1053200000231EA1506928420ED002231021002024
:105330000D4203D0116851F8201009E04900401CCB
:105340000628F5D3164903E01069284200D001234E
:10535000184600225B46984707463CB13068A04299
:1053600012D02146684600F085FB00E00CE04A467A
:105370003946684600F016F8CDF80080E069401E16
:10538000E061684600F09CFB4A463946304600F032
:1053900009F83846BDE8F88F34010010000000001D
:1053A000608A0000F8B50646087A15460C46C00724
:1053B0000FD1286820B917490868401C0860286088
:1053C00020683146826820469047A06840F001007E
:1053D000A06030682D68C068A84207D800200090FF
:1053E00030686A46691C083002F041FA306880680B
:1053F00050F8250030B1C168491EC16002D1016872
:1054000049688847E068401CE0603068806840F880
:105410002540F8BD600100107CB5054608680C46C3
:10542000806948B16846AFF3008002462068816910
:10543000284602F079FC7CBD01A8AFF3008002464B
:1054400000A1F5E72A00000010B50446FBF7EEFACC
:10545000204610BD7CB504462DA1FBF785FBE8B3C3
:105460002CA12046FBF780FBC0B34FF4007000F086
:1054700093FB0546022221466846FFF7B6FA002450
:10548000FCF774FC06464FF4807330680021005D21
:1054900010F0010F00D0012110F03E0F01D041F0BB
:1054A000020110F0400F01D041F0040110F0100F84
:1054B00001D041F0080110F0080F01D041F01001B7
:1054C00010F0980F01D041F0200120281DD00022BB
:1054D0000AB141F0400110F0020F00E013E001D0EA
:1054E00041F0800180EA800010F0800F01D041F48B
:1054F000807125F81410641C9C42C6D16846FFF7E1
:1055000091FA28467CBD05487CBD0122E0E70000F9
:1055100043000000504F534958000000D084000061
:105520002DE9FC41064615460C460846FFF792FF5A
:1055300001462B460022304600F086F93E490160C4
:10554000064640693D49884273D0012030760222E8
:1055500021466846FFF749FA0024FF25E2B21021F0
:105560003046FFF794FE38B909E0EAB21021304620
:10557000FFF78DFE30B96D1EA542F6D802E0641C1F
:10558000AC42EBD3C6E90745F76A18E0A4F1610025
:10559000192810D8E2B210213046FFF778FE50B13A
:1055A000A4F1200808F0FF0208213046FFF76FFE43
:1055B00008B1404600E0204607F8010B641CAC42ED
:1055C000E4D90024FF25E2B208213046FFF75FFE50
:1055D00038B909E0EAB208213046FFF758FE30B981
:1055E0006D1EA542F6D802E0641CAC42EBD3C6E9BE
:1055F0000945376B18E0A4F14100192810D8E2B230
:1056000008213046FFF743FE50B104F1200808F0AE
:10561000FF0210213046FFF73AFE08B1404600E095
:10562000204607F8010B641CAC42E4D96846FFF73A
:10563000F9F93046BDE8FC81B8880000D08400004C
:1056400010B500F004F8BDE8104000F09FBA10B5A6
:1056500000F08EF910BD0000F7B517460024134680
:105660000D4606460A4621462046FFF753F8040039
:105670000DD1002D01DB172D00D300251648002188
:105680003B4650F825200846FFF718F80446706896
:10569000B8B1FBF761F905462046FBF75DF92844F0
:1056A000401C00F079FA7168FCF7CEFA2146FCF74D
:1056B000FAFA0546706800F064FA204600F061FAD4
:1056C0002C4674603046FEBDAFF30080204600F0EB
:1056D00058FAAFF30080F5E76C84000010B500F0D5
:1056E00027FA024901600021416010BDEC880000EA
:1056F00010B5044604482060606800F042FA204675
:10570000AFF3008010BD0000EC88000010B502F07F
:105710004EFB10BD10B504464FF0FF30206000F086
:1057200087F90146201D00F0B5F9001F10BD10B526
:10573000001D00F0C5F9001F10BD10B5044601C9D9
:105740002060201D00F0CCF9204610BD2DE9FE435D
:10575000064602A8FFF760FE022268460299FFF79C
:1057600044F902A802F023FB0024FF25E2B2102135
:105770003046FFF78CFD38B909E0EAB21021304617
:10578000FFF785FD30B96D1EA542F6D802E0641C16
:10579000AC42EBD3C6E90745F76A18E0A4F1610013
:1057A000192810D8E2B210213046FFF770FD50B131
:1057B000A4F1200808F0FF0208213046FFF767FD3A
:1057C00008B1404600E0204607F8010B641CAC42DB
:1057D000E4D90024FF25E2B208213046FFF757FD47
:1057E00038B909E0EAB208213046FFF750FD30B978
:1057F0006D1EA542F6D802E0641CAC42EBD3C6E9AC
:105800000945376B18E0A4F14100192810D8E2B21D
:1058100008213046FFF73BFD50B104F1200808F0A5
:10582000FF0210213046FFF732FD08B1404600E08C
:10583000204607F8010B641CAC42E4D96846FFF728
:10584000F1F8BDE8FE8300002DE9F0410646202076
:1058500070600020C6E902033F4B3360716132760D
:1058600011B93E49716130760024FF25E2B2102162
:105870003046FFF70CFD38B909E0EAB21021304696
:10588000FFF705FD30B96D1EA542F6D802E0641C95
:10589000AC42EBD3281BC6E90745401C00F07CF95D
:1058A0000746F06218E0A4F16100192810D8E2B2AE
:1058B00010213046FFF7EBFC50B1A4F1200808F0AE
:1058C000FF0208213046FFF7E2FC08B1404600E045
:1058D000204607F8010B641CAC42E4D90024FF25E4
:1058E000E2B208213046FFF7D2FC38B909E0EAB24B
:1058F00008213046FFF7CBFC30B96D1EA542F6D823
:1059000002E0641CAC42EBD3281BC6E90945401CED
:1059100000F042F90746306318E0A4F1410019286D
:1059200010D8E2B208213046FFF7B1FC50B104F1C3
:10593000200808F0FF0210213046FFF7A8FC08B14C
:10594000404600E0204607F8010B641CAC42E4D955
:105950003046BDE8F081000000890000D0840000DE
:1059600010B500F005F8BDE8104000F00FB90000D8
:1059700010B5044608482060207E10B1606900F030
:1059800000F9E06A00F0FDF8206B00F0FAF820461C
:10599000AFF3008010BD00000089000010B5AFF328
:1059A0000080BDE8104000F0F1B8000070B51D4E59
:1059B0003069002827D1202000F008F9044602238E
:1059C0000A2219A1FEF78EFF00241025B06008E01E
:1059D000B1680868896900EB840002F0EFF96D0096
:1059E000641C15F47C7FF3D1202000F0EFF804460E
:1059F00001230A220DA1FEF775FF4FF47C71F060C0
:105A00000161B068306170BDAFF30080B06818B15B
:105A1000FEF7DEFF00F0BAF800203061B060AFF3AF
:105A2000008070BD34010010430000000000000041
:105A300010B50D4C206908B9FFF7B8FF2078C007F2
:105A40000FD1094800F07AF958B10748A168001D44
:105A500000F010F8054A064900F04AF90248AFF391
:105A600000800148001D10BD34010010000000003E
:105A7000C15A000010B5044601600548006908B924
:105A8000FFF794FF2168C869401CC861204610BD1B
:105A90003401001009680160CA69521CCA6170476C
:105AA00070B5064C0546206808B9FFF77FFF2168EE
:105AB0002960C869401CC861284670BD44010010B7
:105AC00010B50446006848B1C169491EC16105D1DD
:105AD000206818B1FEF77CFF00F058F8204610BD92
